:10000000001000203D05000035050000350500000A
:10001000F8B51148114A1AE055689368D4689D42B2
:1000200009D0002104E06E1877683668C0C3083133
:10003000A142F8D100E01B191469002103E000255A
:10004000002660C30831A142F9D1143201380028DA
:10005000E2D100F09FFEC04601000000180F000032
:1000600080B584B000AF021CFB1D1A70224A3B1CF5
:100070000E3312781A70214A3B1C0F3312781A7013
:100080001F4B1B68013BBB601AE01E4B1868BA6827
:10009000391C0E31131C5B009B181B1801331B7895
:1000A0000B70184B1868BA68391C0F31131C5B00B1
:1000B0009B181B1802331B780B70BB68013BBB609D
:1000C000BB68002B0ADB0F4B1968BA68131C5B0076
:1000D0009B185B5CFA1D12789A42D6D90A4B3A1CDF
:1000E0000E3212781A60094B3A1C0F3212781A60DD
:1000F000BD4604B080BDC046CCF1FF0FCDF1FF0F6F
:10010000F00E0000CC0000201CFF0B4020FF0B4035
:1001100080B500AF164A164B19688023DB020B43EB
:1001200013601820FFF79CFF124B19221A6005205C
:1001300000F076FD104B114A1278D2B21A600520F9
:1001400000F07EFD0A4B0A4A11680D4A0A401A6007
:100150000C4B10221A600C4A80231B0613600B4ABA
:1001600080231B0613600A4B0A4A1A60BD4680BDF5
:1001700000010B402CFF0B4028FF0B40E5F1FF0F67
:10018000FFFFFBFF0802024008010B4004010B4087
:1001900000000240CF00008080B582B000AF72B690
:1001A000FB1C00221A7024E0FB1C1A78131C5B0055
:1001B0009B185B001A1C274BD3187B607B681A784E
:1001C000597809020A43997809040A43DB781B0627
:1001D00013431A1C7B6819795B791B020B439BB292
:1001E000101C191C00F006FDFB1CFA1C12780132D1
:1001F0001A70FB1C1B78012BD6D9174AEE231B0261
:100200001360164B99221A60154AD8231B011360FC
:10021000144B02221A60144B31221A60134A99239C
:100220001B041360124B124A1278D1B202220A4305
:10023000D2B21A700E4B0E4A1278D1B206220A437D
:10024000D2B21A70FFF764FF00F0E4FCBD4602B0C2
:1002500080BDC046E40E00000C00014010000140CB
:1002600008030440000404400804044030500F40D8
:1002700000700F4000B5034B1A78002A01D101200D
:10028000187000BDE000002008B504480368002B8A
:1002900003D0034B002B00D0984708BDC8000020B6
:1002A0000000000080B582B000AF78600A1CFB1C23
:1002B0001A70FB1C1B78181C00F09CF9BD4602B09C
:1002C00080BDC04690B593B000AF00F081F9884B77
:1002D0000020191C00F034FC62B63A1C45320A2397
:1002E0005B4213703B1C46337F221A703B1C473322
:1002F00063221A703B1C38337E4A13CA13C3127828
:100300001A707D4B181C00F0DDF90D2000F072F919
:100310000A2000F06FF90D2000F06CF90A2000F0BF
:1003200069F9764B181C00F0CDF90D2000F062F948
:100330000A2000F05FF90D2000F05CF90A2000F0BF
:1003400059F93B1C45331B785BB26D4A101C191CD4
:1003500000F008FC0D2000F04DF90A2000F04AF9E9
:100360003B1C46331B78674A101C191C00F0FAFB33
:100370000D2000F03FF90A2000F03CF93B1C463309
:100380001B78614A101C191C00F0ECFB0D2000F0DA
:1003900031F90A2000F02EF93B1C46331B785B4AEA
:1003A000101C191C00F0DEFB0D2000F023F90A20C0
:1003B00000F020F93B1C47331B78554A101C191CD0
:1003C00000F0D0FB0D2000F015F90A2000F012F922
:1003D000504A3B1C3833101C191C00F0C3FB0D2085
:1003E00000F008F90A2000F005F94B4B181C00F04A
:1003F00069F90D2000F0FEF80A2000F0FBF80D204E
:1004000000F0F8F80A2000F0F5F83B1C45331B78A3
:100410005BB2391D414A081C111C1A1C00F0CEFBAE
:100420003B1D181C00F04EF90D2000F0E3F80A20E7
:1004300000F0E0F83B1C46331B78391D384A081C95
:10044000111C1A1C00F0BAFB3B1D181C00F03AF9F5
:100450000D2000F0CFF80A2000F0CCF83B1C46330A
:100460001B78391D2F4A081C111C1A1C00F0A6FB12
:100470003B1D181C00F026F90D2000F0BBF80A20E7
:1004800000F0B8F83B1C46331B78391D264A081C7F
:10049000111C1A1C00F092FB3B1D181C00F012F9F5
:1004A0000D2000F0A7F80A2000F0A4F83B1C473309
:1004B0001B78391D1D4A081C111C1A1C00F07EFBFC
:1004C0003B1D181C00F0FEF80D2000F093F80A20E8
:1004D00000F090F8391D164A3B1C3833081C111CDB
:1004E0001A1C00F06BFB3B1D181C00F0EBF8FEE73C
:1004F000A5020000D40E00001C0E0000280E000013
:10050000380E00003C0E0000400E0000440E0000BB
:10051000480E00004C0E0000500E0000640E00005B
:10052000780E0000900E0000A40E0000B80E00002F
:10053000C80E000080B500AFFEE7C046014B9D46E7
:10054000014B1847001000201100000080B582B058
:1005500000AF00237B600FE079687B68032B04D831
:100560007A680D4B9200D35800E00C4B0C4A89007E
:100570008B507B6801337B607B682F2BECD9FFF7B6
:100580000BFE084B00221A608023DB0501221A6053
:10059000BD4602B080BDC046000000003505000029
:1005A00000000020C000002080B500AF00F036F849
:1005B000BD4680BD80B500AF044A044B1968802356
:1005C0001B060B431360BD4680BDC04600000640BD
:1005D00080B500AF064B1B78002B04D1044B0122E1
:1005E0001A70FFF7E1FFFFF7E5FFBD4680BDC0468B
:1005F000E400002080B582B000AF7860054B1A6837
:100600000F231340082BF9D0034B7A681A60BD46BC
:1006100002B080BD080206404002064080B500AF2F
:10062000174B184A1A60184B00221A60174B012208
:100630001A60174B174A1A60174B07221A60174B9C
:1006400000221A60164B01221A60164B114A1A60DA
:10065000154B00221A60154B00221A60144B002221
:100660001A60144B00221A60134B00221A60134BBD
:1006700000221A60124B00221A60BD4680BDC0469F
:10068000000006400B000002400006404800064003
:1006900000030640070000800403064010030640E4
:1006A000440006400002064004020640880E064050
:1006B000C80E0640480F0640080F0640C80F064007
:1006C000880F064080B584B000AF78600023FB60DF
:1006D00009E07A68FB68D3181B78181CFFF78AFFBB
:1006E000FB680133FB607A68FB68D3181B78002B2A
:1006F000EFD1BD4604B080BD80B588B000AFF860D2
:10070000B9607A603B6000237B610123BB6103E039
:10071000BB69BA685343BB61F868B96900F0A4FAD1
:10072000031C1A1CBB689A42F2D232E0F868B9691D
:1007300000F09AFA031CFB61FB68181CB96900F011
:10074000D7FA0B1CFB60B869B96800F08DFA031C7E
:10075000BB617B69002B05D1FB69002B02DCBB6907
:10076000002B16D1FB69092B06DD7B68002B01D01D
:10077000372300E0572300E03023FA69D2B29B18F8
:10078000DAB23B681A703B6801333B607B69013326
:100790007B61BB69002BC9D13B6800221A70BD4642
:1007A00008B080BD80B582B000AF786039607B68EA
:1007B000002B08DA7B685B427B603B682D221A7055
:1007C0003B6801333B607A683B68101C0A210022B9
:1007D000FFF792FFBD4602B080BDC04680B582B033
:1007E00000AF021CFB1D1A70FB1D1B782F2B07D9B5
:1007F000FB1D1B78392B03D8FB1D1B78303B19E000
:10080000FB1D1B78602B07D9FB1D1B78662B03D8BB
:10081000FB1D1B78573B0DE0FB1D1B78402B07D9B8
:10082000FB1D1B78462B03D8FB1D1B78373B01E0D3
:1008300001235B42181CBD4602B080BD80B588B064
:1008400000AFB9607A603B603B1C0F33021C1A702A
:10085000BB681B687B610023BB6111E0FA697B68A0
:100860009A4219DCBB697A685A43FB69D318BB61A9
:100870003B1C0F337A6912781A707B6901337B61F4
:100880003B1C0F331B78181CFFF7A8FF031CFB61F0
:10089000FB69002BE2DA00E0C046BB687A691A60A7
:1008A0003B68BA691A603B1C0F331B78181CBD46A5
:1008B00008B080BD80B586B000AFF860B9607A60DE
:1008C0001A1CFB1C1A70FB1C1B78002B01D0302358
:1008D00000E020233A1C123213703B6A7B6102E075
:1008E0007B68013B7B607B691B785A1E9341DBB2BE
:1008F0007A6901327A61002B0CD07B68002BEFDC27
:1009000009E0F9683B1C12331A78BB68081C111CFB
:10091000984700E0C0467B68DA17D31ADB0FDBB2DA
:100920007A68013A7A60002BEBD107E0F9683B1C4A
:1009300013331A78BB68081C111C98473B1C1333EF
:100940003A6A12781A703B1C13331B785A1E934173
:10095000DBB23A6A01323A62002BE7D1BD4606B0FB
:1009600080BDC04690B58DB002AFF860B9607A60C6
:100970003B60D0E03B1C26331B78252B08D0F96860
:100980003B1C26331A78BB68081C111C9847C2E030
:100990003B1C273300221A7000237B617B683A1CC2
:1009A00026321978117001337B603B1C26331B788B
:1009B000302B0AD17B683A1C26321978117001332A
:1009C0007B603B1C273301221A703B1C26331B78AB
:1009D0002F2B14D93B1C26331B78392B0FD83B1CEB
:1009E000263319783A1D3B1C1433081C111C0A22AB
:1009F000FFF724FF031C1A1C3B1C26331A703B1CF8
:100A000026331B78642B2FD0642B0DDC582B43D05E
:100A1000582B06DC002B00D18EE0252B00D172E094
:100A200079E0632B56D076E0752B04D0782B33D049
:100A3000732B5AD06FE03B681A1D3A601A683B1C52
:100A40001833101C0A210022FFF756FE7A69F86855
:100A5000B9683B1C27331B781824E419A446644664
:100A60000094FFF727FF56E03B681A1D3A601A68AA
:100A70003B1C1833101C191CFFF794FE7A69F868A8
:100A8000B9683B1C27331B781824E419A446644634
:100A90000094FFF70FFF3EE03B681A1D3A601968AB
:100AA0003B1C26331B78583B5A425A413B1C183397
:100AB000081C1021FFF720FE7A69F868B9683B1C12
:100AC00027331B781824E419A44664460094FFF7E2
:100AD000F1FE20E03B681A1D3A601B68DAB2F96843
:100AE000BB68081C111C984715E07A693B68191D02
:100AF00039601868F968BB680090081C191C00234D
:100B0000FFF7D8FE07E0F9683B1C26331A78BB686C
:100B1000081C111C98477B683A1C26321978117002
:100B20003A1C26321278511E8A41D2B201337B60C0
:100B3000002A00D01EE700E0C046BD460BB090BDC5
:100B400080B582B000AF78603960044B3A681A60B3
:100B5000034B7A681A60BD4602B080BDEC000020ED
:100B6000F00000200FB480B582B000AF3B1C1433FE
:100B70007B60074B1868074B19683A697B68FFF779
:100B8000F1FEBD4602B080BC08BC04B01847C046A8
:100B9000F0000020EC00002080B582B000AF78604B
:100BA0000A1CFB1C1A707B681A68F91C0978117002
:100BB00001321A60BD4602B080BDC0460EB480B599
:100BC00085B000AF78603B1C2033FB60381D0849BE
:100BD000FA69FB68FFF7C6FE3B1D181C0021FFF7F2
:100BE000DBFFBD4605B080BC08BC03B01847C0465B
:100BF000990B000080B582B000AF786039607A68E8
:100C00003B68101C00211A1C00F07EF8BD4602B0A3
:100C100080BDC04680B500AFBD4680BD000000006D
:100C20000230800804D0C0460138FDD1C046C0461D
:100C30007047EFF3108072B6704780F310887047EA
:100C400080B582B000AF021CBB1D1A80BB1D1B8883
:100C5000044A12785343181CFFF7E2FFBD4602B066
:100C600080BDC046D8000020002934D001230022D6
:100C700010B488422CD301242407A14204D281421B
:100C800002D209011B01F8E7E400A14204D281422B
:100C900002D249005B00F8E7884201D3401A1A43A8
:100CA0004C08A04202D3001B5C0822438C08A042DF
:100CB00002D3001B9C082243CC08A04202D3001B95
:100CC000DC082243002803D01B0901D00909E3E70F
:100CD000101C10BC7047002801D00020C04307B48E
:100CE000024802A14018029003BDC046190000004E
:100CF0000029F0D003B5FFF7B9FF0EBC4243891AB3
:100D00001847C0467047C04630B5C9B2032A08D854
:100D1000002A05D0031C1218197001339342FBD12D
:100D200030BD8418031C032201E019700133134203
:100D3000FBD10A02521815045219E51A11E01A6083
:100D40005A609A60DA601A615A619A61DA611A62CD
:100D50005A629A62DA621A635A639A63DA63403DAE
:100D600040333F2DEBDCE51A05E01A605A609A60CB
:100D7000DA60103D10330F2DF7DCE51A01E004C3F3
:100D8000043D032DFBDC01E0197001339C42FBD8CC
:100D9000C6E7C04608B500F01DF80A4B002B01D18C
:100DA000002000E01868084B002B01D1002100E072
:100DB00019680022FFF786FA044B002B01D000E0EF
:100DC00000BFFEE70000000000000000000000007F
:100DD000FEE7000070B50D4D0D4E761BB610002ECF
:100DE00005D0002408CD01349847A642FAD800F077
:100DF00081F8084D084E761BB610002E05D0002451
:100E000008CD01349847A642FAD870BD000F000003
:0C0E1000000F0000000F0000080F0000A1
:100E1C005553425F554152540A0000007072696E7E
:100E2C007466204578616D706C65730025640000F4
:100E3C00257500002578000025580000256300006A
:100E4C0025730000737072696E7466204578616D4D
:100E5C00706C6573000000007369676E65642064D4
:100E6C006563696D616C3A2025640000756E736969
:100E7C00676E656420646563696D616C3A202575E5
:100E8C00000000006C6F77657220636173652068E9
:100E9C0065783A2025780000757070706572206353
:100EAC00617365206865783A202558006368617223
:100EBC0061637465723A2025630000007374726973
:100ECC006E673A20257300004E756C6C205374725B
:100EDC00696E670A0000000000300F4000040040FB
:100EEC000F40000404000000F8B5C046F8BC08BC74
:100EFC009E467047890200004D050000F8B5C046BB
:100F0C00F8BC08BC9E46704775020000000000004B
:100F1C00300F0000C800002018000000180000006E
:040F2C0000000000C1
:100F300000000000C0F1FF0F00366E01C05D000030
:080F4000180000000000E02E83
:040000030000053DB7
:00000001FF
